{
  "contractName": "Lottery",
  "abi": [
    {
      "inputs": [],
      "stateMutability": "nonpayable",
      "type": "constructor"
    },
    {
      "inputs": [
        {
          "internalType": "uint256",
          "name": "",
          "type": "uint256"
        }
      ],
      "name": "lotteryHistory",
      "outputs": [
        {
          "internalType": "address",
          "name": "",
          "type": "address"
        }
      ],
      "stateMutability": "view",
      "type": "function"
    },
    {
      "inputs": [],
      "name": "lotteryId",
      "outputs": [
        {
          "internalType": "uint256",
          "name": "",
          "type": "uint256"
        }
      ],
      "stateMutability": "view",
      "type": "function"
    },
    {
      "inputs": [],
      "name": "owner",
      "outputs": [
        {
          "internalType": "address",
          "name": "",
          "type": "address"
        }
      ],
      "stateMutability": "view",
      "type": "function"
    },
    {
      "inputs": [
        {
          "internalType": "uint256",
          "name": "",
          "type": "uint256"
        }
      ],
      "name": "players",
      "outputs": [
        {
          "internalType": "address payable",
          "name": "",
          "type": "address"
        }
      ],
      "stateMutability": "view",
      "type": "function"
    },
    {
      "inputs": [],
      "name": "getBalance",
      "outputs": [
        {
          "internalType": "uint256",
          "name": "",
          "type": "uint256"
        }
      ],
      "stateMutability": "view",
      "type": "function"
    },
    {
      "inputs": [],
      "name": "getPlayers",
      "outputs": [
        {
          "internalType": "address payable[]",
          "name": "",
          "type": "address[]"
        }
      ],
      "stateMutability": "view",
      "type": "function"
    },
    {
      "inputs": [],
      "name": "enter",
      "outputs": [],
      "stateMutability": "payable",
      "type": "function"
    },
    {
      "inputs": [],
      "name": "getRandomNumber",
      "outputs": [
        {
          "internalType": "uint256",
          "name": "",
          "type": "uint256"
        }
      ],
      "stateMutability": "view",
      "type": "function"
    },
    {
      "inputs": [],
      "name": "getRandomNumberV2",
      "outputs": [
        {
          "internalType": "uint256",
          "name": "",
          "type": "uint256"
        }
      ],
      "stateMutability": "view",
      "type": "function"
    },
    {
      "inputs": [],
      "name": "getRandomNumberV3",
      "outputs": [
        {
          "internalType": "uint256",
          "name": "",
          "type": "uint256"
        }
      ],
      "stateMutability": "view",
      "type": "function"
    },
    {
      "inputs": [],
      "name": "pickWinner",
      "outputs": [],
      "stateMutability": "nonpayable",
      "type": "function"
    }
  ],
  "bytecode": "0x608060405234801561001057600080fd5b50336000806101000a81548173ffffffffffffffffffffffffffffffffffffffff021916908373ffffffffffffffffffffffffffffffffffffffff160217905550610f68806100606000396000f3fe60806040526004361061009c5760003560e01c80638b5b9ccc116100645780638b5b9ccc146101765780638da5cb5b146101a1578063dbdff2c1146101cc578063e580f47b146101f7578063e97dcb6214610222578063f71d96cb1461022c5761009c565b806312065fe0146100a157806347b89533146100cc5780635d495aea146100f75780636793aa141461010e5780636d6fe23014610139575b600080fd5b3480156100ad57600080fd5b506100b6610269565b6040516100c39190610840565b60405180910390f35b3480156100d857600080fd5b506100e1610271565b6040516100ee9190610840565b60405180910390f35b34801561010357600080fd5b5061010c6102b1565b005b34801561011a57600080fd5b5061012361051d565b6040516101309190610840565b60405180910390f35b34801561014557600080fd5b50610160600480360381019061015b919061088c565b610553565b60405161016d91906108fa565b60405180910390f35b34801561018257600080fd5b5061018b610586565b60405161019891906109e5565b60405180910390f35b3480156101ad57600080fd5b506101b6610614565b6040516101c391906108fa565b60405180910390f35b3480156101d857600080fd5b506101e1610638565b6040516101ee9190610840565b60405180910390f35b34801561020357600080fd5b5061020c61068c565b6040516102199190610840565b60405180910390f35b61022a610692565b005b34801561023857600080fd5b50610253600480360381019061024e919061088c565b610741565b6040516102609190610a16565b60405180910390f35b600047905090565b60006001436102809190610a60565b4042604051602001610293929190610ae0565b6040516020818303038152906040528051906020012060001c905090565b60008054906101000a900473ffffffffffffffffffffffffffffffffffffffff1673ffffffffffffffffffffffffffffffffffffffff163373ffffffffffffffffffffffffffffffffffffffff161461030957600080fd5b6000600180549050610319610271565b6103239190610b3b565b90506001818154811061033957610338610b6c565b5b9060005260206000200160009054906101000a900473ffffffffffffffffffffffffffffffffffffffff1660036000600254815260200190815260200160002060006101000a81548173ffffffffffffffffffffffffffffffffffffffff021916908373ffffffffffffffffffffffffffffffffffffffff160217905550600260008154809291906103ca90610b9b565b91905055506000600182815481106103e5576103e4610b6c565b5b9060005260206000200160009054906101000a900473ffffffffffffffffffffffffffffffffffffffff1673ffffffffffffffffffffffffffffffffffffffff164760405161043390610c14565b60006040518083038185875af1925050503d8060008114610470576040519150601f19603f3d011682016040523d82523d6000602084013e610475565b606091505b50509050806104b9576040517f08c379a00000000000000000000000000000000000000000000000000000000081526004016104b090610c86565b60405180910390fd5b600067ffffffffffffffff8111156104d4576104d3610ca6565b5b6040519080825280602002602001820160405280156105025781602001602082028036833780820191505090505b5060019080519060200190610518929190610780565b505050565b60004442600160405160200161053593929190610df3565b6040516020818303038152906040528051906020012060001c905090565b60036020528060005260406000206000915054906101000a900473ffffffffffffffffffffffffffffffffffffffff1681565b6060600180548060200260200160405190810160405280929190818152602001828054801561060a57602002820191906000526020600020905b8160009054906101000a900473ffffffffffffffffffffffffffffffffffffffff1673ffffffffffffffffffffffffffffffffffffffff16815260200190600101908083116105c0575b5050505050905090565b60008054906101000a900473ffffffffffffffffffffffffffffffffffffffff1681565b60008060009054906101000a900473ffffffffffffffffffffffffffffffffffffffff164260405160200161066e929190610e74565b6040516020818303038152906040528051906020012060001c905090565b60025481565b662386f26fc100003410156106dc576040517f08c379a00000000000000000000000000000000000000000000000000000000081526004016106d390610f12565b60405180910390fd5b6001339080600181540180825580915050600190039060005260206000200160009091909190916101000a81548173ffffffffffffffffffffffffffffffffffffffff021916908373ffffffffffffffffffffffffffffffffffffffff160217905550565b6001818154811061075157600080fd5b906000526020600020016000915054906101000a900473ffffffffffffffffffffffffffffffffffffffff1681565b8280548282559060005260206000209081019282156107f9579160200282015b828111156107f85782518260006101000a81548173ffffffffffffffffffffffffffffffffffffffff021916908373ffffffffffffffffffffffffffffffffffffffff160217905550916020019190600101906107a0565b5b509050610806919061080a565b5090565b5b8082111561082357600081600090555060010161080b565b5090565b6000819050919050565b61083a81610827565b82525050565b60006020820190506108556000830184610831565b92915050565b600080fd5b61086981610827565b811461087457600080fd5b50565b60008135905061088681610860565b92915050565b6000602082840312156108a2576108a161085b565b5b60006108b084828501610877565b91505092915050565b600073ffffffffffffffffffffffffffffffffffffffff82169050919050565b60006108e4826108b9565b9050919050565b6108f4816108d9565b82525050565b600060208201905061090f60008301846108eb565b92915050565b600081519050919050565b600082825260208201905092915050565b6000819050602082019050919050565b600061094c826108b9565b9050919050565b61095c81610941565b82525050565b600061096e8383610953565b60208301905092915050565b6000602082019050919050565b600061099282610915565b61099c8185610920565b93506109a783610931565b8060005b838110156109d85781516109bf8882610962565b97506109ca8361097a565b9250506001810190506109ab565b5085935050505092915050565b600060208201905081810360008301526109ff8184610987565b905092915050565b610a1081610941565b82525050565b6000602082019050610a2b6000830184610a07565b92915050565b7f4e487b7100000000000000000000000000000000000000000000000000000000600052601160045260246000fd5b6000610a6b82610827565b9150610a7683610827565b925082821015610a8957610a88610a31565b5b828203905092915050565b6000819050919050565b6000819050919050565b610ab9610ab482610a94565b610a9e565b82525050565b6000819050919050565b610ada610ad582610827565b610abf565b82525050565b6000610aec8285610aa8565b602082019150610afc8284610ac9565b6020820191508190509392505050565b7f4e487b7100000000000000000000000000000000000000000000000000000000600052601260045260246000fd5b6000610b4682610827565b9150610b5183610827565b925082610b6157610b60610b0c565b5b828206905092915050565b7f4e487b7100000000000000000000000000000000000000000000000000000000600052603260045260246000fd5b6000610ba682610827565b91507fffffffffffffffffffffffffffffffffffffffffffffffffffffffffffffffff8203610bd857610bd7610a31565b5b600182019050919050565b600081905092915050565b50565b6000610bfe600083610be3565b9150610c0982610bee565b600082019050919050565b6000610c1f82610bf1565b9150819050919050565b600082825260208201905092915050565b7f4661696c656420746f2073656e64204574686572000000000000000000000000600082015250565b6000610c70601483610c29565b9150610c7b82610c3a565b602082019050919050565b60006020820190508181036000830152610c9f81610c63565b9050919050565b7f4e487b7100000000000000000000000000000000000000000000000000000000600052604160045260246000fd5b600081549050919050565b600081905092915050565b60008190508160005260206000209050919050565b610d0981610941565b82525050565b6000610d1b8383610d00565b60208301905092915050565b60008160001c9050919050565b600073ffffffffffffffffffffffffffffffffffffffff82169050919050565b6000610d67610d6283610d27565b610d34565b9050919050565b6000610d7a8254610d54565b9050919050565b6000600182019050919050565b6000610d9982610cd5565b610da38185610ce0565b9350610dae83610ceb565b8060005b83811015610de657610dc382610d6e565b610dcd8882610d0f565b9750610dd883610d81565b925050600181019050610db2565b5085935050505092915050565b6000610dff8286610ac9565b602082019150610e0f8285610ac9565b602082019150610e1f8284610d8e565b9150819050949350505050565b60008160601b9050919050565b6000610e4482610e2c565b9050919050565b6000610e5682610e39565b9050919050565b610e6e610e69826108d9565b610e4b565b82525050565b6000610e808285610e5d565b601482019150610e908284610ac9565b6020820191508190509392505050565b7f6d73672e76616c75652073686f756c642062652067726561746572207468616e60008201527f20657175616c20746f20302e3031206574686572000000000000000000000000602082015250565b6000610efc603483610c29565b9150610f0782610ea0565b604082019050919050565b60006020820190508181036000830152610f2b81610eef565b905091905056fea2646970667358221220b7d1ae2be2e49a7bb2236956e382f59911aa197c635aec9af6b34140fda653ce64736f6c634300080f0033",
  "immutableReferences": {},
  "source": "// SPDX-License-Identifier: MIT\r\npragma solidity ^0.8.15; //^0.8.15 : 0.8.15 <=  < 0.9.0\r\n\r\ncontract Lottery {\r\n    address public owner;\r\n    address payable[] public players;//address payable: ETH    address \r\n    // winner  players    -> winner ETH  address payable \r\n\r\n    uint256 public lotteryId;\r\n    mapping(uint256 => address) public lotteryHistory;\r\n\r\n    constructor() {\r\n        owner = msg.sender;\r\n    }\r\n\r\n    function getBalance() public view returns(uint256) {\r\n        return address(this).balance;\r\n    }\r\n\r\n    //memory: players  storage       return   memory \r\n    function getPlayers() public view returns(address payable[] memory){\r\n        return players;\r\n    }\r\n\r\n    //enter()   ETH    payable \r\n    function enter() public payable {\r\n        require(msg.value >= .01 ether, \"msg.value should be greater than equal to 0.01 ether\");\r\n        players.push(payable(msg.sender));\r\n    }\r\n\r\n    function getRandomNumber() public view returns(uint256) {\r\n        //abi.encodePacked(owner, block.timestamp): owner block.timestamp  bytes converting  concat \r\n        return uint256(keccak256((abi.encodePacked(owner, block.timestamp))));\r\n    }\r\n    //block.timestamp       \r\n    function getRandomNumberV2() public view returns(uint256) {\r\n        return uint256(keccak256(abi.encodePacked(block.difficulty, block.timestamp, players)));\r\n    }\r\n    function getRandomNumberV3() public view returns(uint256) {\r\n        return uint256(keccak256(abi.encodePacked(blockhash(block.number -1), block.timestamp)));\r\n    }    \r\n    /*\r\n           PRNG        deterministic \r\n    ,        \r\n    */    \r\n\r\n    function pickWinner() public onlyOwner {\r\n        uint256 index = getRandomNumberV3() % players.length;\r\n\r\n        lotteryHistory[lotteryId] = players[index];\r\n        lotteryId++;\r\n        //       ( call)\r\n        //re-entrancy attack ( (EOA    )   )\r\n        (bool success, ) = players[index].call{value: address(this).balance}(\"\"); //  (    )\r\n        require(success, \"Failed to send Ether\");\r\n\r\n        players = new address payable[](0); //   players \r\n    }\r\n\r\n    modifier onlyOwner {\r\n        require(msg.sender == owner);\r\n        _;\r\n    }\r\n}\r\n\r\n//     SPDX License   \r\n// MIT License:     ",
  "sourcePath": "D:\\lottery-truffle\\contracts\\Lottery.sol",
  "compiler": {
    "name": "solc",
    "version": "0.8.15+commit.e14f2714.Emscripten.clang"
  },
  "schemaVersion": "3.4.11",
  "updatedAt": "2023-03-13T08:07:17.244Z",
  "devdoc": {
    "kind": "dev",
    "methods": {},
    "version": 1
  },
  "userdoc": {
    "kind": "user",
    "methods": {},
    "version": 1
  }
}